S01100004578616D706C655F312E73726563B7
S113000012C02CC02BC02AC003C128C027C026C0E0
S113001025C024C023C022C021C020C01FC01EC0D0
S11300201DC01CC01BC011241FBECFE5D4E0DEBF21
S1130030CDBF10E0A0E6B0E0E0EEF2E002C0059033
S11300400D92A637B107D9F720E0A6E7B0E001C0CA
S11300501D92A937B207E1F719D140C1D1CF8295DA
S1130060807F92B3986092BB95E89A95F1F700006F
S113007092B39F7092BB92B3892B82BB82B3877F6A
S113008082BB85E88A95F1F700000895CF93C82FC5
S1130090611104C082B38B7F82BB03C082B38460CE
S11300A082BB8C2F82958F70DADF8C2FD8DFCF91B3
S11300B0089561E0EBDF08950F931F93CF93DF93CF
S11300C08C01C0E0D0E002C0F4DF2196F801EC0F0F
S11300D0FD1F80818111F8CFDF91CF911F910F9186
S11300E0089590E4699F800D112460E08068CEDF5C
S11300F008958FE295E70197F1F700C0000083E0CF
S1130100AEDF8FE39FE10197F1F700C0000083E0C9
S1130110A6DF87EC90E00197F1F700C0000083E0D0
S11301209EDF8FEC97E00197F1F700C0000082E0BA
S113013096DF8FEC97E00197F1F700C0000060E0D4
S113014088E2A4DF8FEC97E00197F1F700C000008C
S113015060E08CE09BDF8FEC97E00197F1F700C043
S1130160000060E086E092DF8FEC97E00197F1F702
S113017000C000000895FF920F931F93CF93DF9365
S1130180182F062FF42ECDEC4C9FD12D1124D6958B
S1130190D695D69580E38D0F8CDFDD0F8D2F880FDC
S11301A0880FD80F8F2D8D1B805D83DF8AE381DF5D
S11301B00C9FD12D1124D695D695D69580E38D0F1D
S11301C078DFDD0F8D2F880F880FD80F802F8D1BC0
S11301D0805D6FDF8AE36DDF1C9FC12D1124C695FE
S11301E0C695C69580E38C0F64DFCC0F8C2F880FE7
S11301F0880FC80F812F8C1B805D5BDFDF91CF914F
S11302001F910F91FF90089512BA8FEF81BB08954B
S11302101F920F920FB60F9211248F939F93809188
S1130220760081112CC0809177008F5F80937700D6
S11302308E3128F18091610081111AC0809178007B
S1130240811104C090916000992391F09CE39093F4
S11302506100811108C08CE3809378008091600074
S11302608150809360008091780081508093780061
S113027080916100815080936100109277009F917A
S11302808F910F900FBE0F901F901895BDDF31DF37
S113029089B7806489BF85B5856085BD8FB780685F
S11302A08FBF60E070E080E01CDF8091610081110D
S11302B00FC09091780091110BC090916000911142
S11302C007C082E690E0F8DE81E080937600E9CF13
S11302D040916000609178004EDFE3CFF894FFCF47
S11302E0010A54696D657220636F6D706C65746585
S10902F064202020000040
S9030000FC
