S01100004578616D706C655F322E73726563B6
S113000012C02CC02BC02AC029C028C027C026C0BB
S113001025C024C023C022C021C020C01FC01EC0D0
S11300201DC01CC01BC011241FBECFE5D4E0DEBF21
S1130030CDBF10E0A0E6B0E0E0E0F5E002C005903E
S11300400D92A637B107D9F720E0A6E7B0E001C0CA
S11300501D92A638B207E1F753D150C2D1CF829591
S1130060807F92B3986092BB95E89A95F1F700006F
S113007092B39F7092BB92B3892B82BB82B3877F6A
S113008082BB85E88A95F1F700000895CF93C82FC5
S1130090611104C082B38B7F82BB03C082B38460CE
S11300A082BB8C2F82958F70DADF8C2FD8DFCF91B3
S11300B0089561E0EBDF08950F931F93CF93DF93CF
S11300C08C01C0E0D0E002C0F4DF2196F801EC0F0F
S11300D0FD1F80818111F8CFDF91CF911F910F9186
S11300E0089590E4699F800D112460E08068CEDF5C
S11300F008958FE295E70197F1F700C0000083E0CF
S1130100AEDF8FE39FE10197F1F700C0000083E0C9
S1130110A6DF87EC90E00197F1F700C0000083E0D0
S11301209EDF8FEC97E00197F1F700C0000082E0BA
S113013096DF8FEC97E00197F1F700C0000060E0D4
S113014088E2A4DF8FEC97E00197F1F700C000008C
S113015060E08CE09BDF8FEC97E00197F1F700C043
S1130160000060E086E092DF8FEC97E00197F1F702
S113017000C00000089560E081E088DF87EB9BE029
S11301800197F1F700C000000895FF920F931F93A9
S1130190CF93DF93182F062FF42ECDEC4C9FD12D47
S11301A01124D695D695D69580E38D0F82DFDD0F89
S11301B08D2F880F880FD80F8F2D8D1B805D79DFD1
S11301C08AE377DF0C9FD12D1124D695D695D69549
S11301D080E38D0F6EDFDD0F8D2F880F880FD80F12
S11301E0802F8D1B805D65DF8AE363DF1C9FC12D3B
S11301F01124C695C695C69580E38C0F5ADFCC0FA3
S11302008C2F880F880FC80F812F8C1B805D51DFC6
S1130210DF91CF911F910F91FF900895CF92DF92BC
S1130220EF92FF920F931F93CF93DF93182FF62E25
S1130230D42E60E070E080E054DFCDEC0C9FD12D33
S11302401124D695D695D69580E38D0F32DFDD0F38
S11302508D2F880F880FD80F802F8D1B805D29DF8D
S11302608EE227DFEC9ED12D1124D695D695D69516
S113027080E38D0F1EDFDD0F8D2F880F880FD80FC1
S11302808E2D8D1B805D15DF8EE213DF82E311DF7F
S113029080E30FDFCC9EC12D1124C695C695C6956B
S11302A080E38C0F06DFCC0F8C2F880F880FC80FCC
S11302B08C2D8C1B805DFDDE61E070E080E011DF41
S11302C04D2D6F2D812F61DFDF91CF911F910F9104
S11302D0FF90EF90DF90CF90089512BA8FEF81BB1B
S11302E081E085BB84B384BB0895982F92959F7059
S11302F0990F292F220F220F920F8F70890F0895C3
S1130300ECDFCED0F6DE37DF60ED80E0DCD02FEF1F
S113031081EE94E0215080409040E1F700C000005D
S1130320C2D081EDC9D0DCD080938000D9D0809335
S11303307E00D6D080937C00D3D080938100D0D02F
S113034080938200CDD080937A00D1D080937F00B7
S1130350B0D080918000C9DFC82F80938000809145
S11303607E00C3DFD82F80937E0080917C00BDDFA8
S1130370182F80937C0080918100B7DFF82E809342
S1130380810080917F00B1DFC82E80937F0080912F
S11303907A00ABDFE82E80937A0080918200A5DF9B
S11303A080938200082F2F2D412F6D2F8C2F36DF45
S11303B0989951C080917800811144C081E0809364
S11303C0780060E070E08EE08CDE81E690E074DE20
S11303D061E070E08EE085DE9091800080916000A5
S11303E0890F8093790020917E0090917700290FE6
S11303F02093830030917C0090917600930F90932A
S113040085008C3330F02F5F209383008C538093CE
S11304107900809183008C3330F09F5F9093850046
S11304208C538093830080918500883118F0875124
S113043080938500409185006091830080917900CC
S1130440A4DE09C01092780060E070E08EE049DE1E
S113045089E690E031DE80917800882309F454CF56
S11304609091800080917900981708F44DCF909175
S11304707E0080918300981708F446CF90917C0009
S113048080918500981708F43FCF75DE60E070E036
S11304908EE027DE82E790E00FDE1092780034CF02
S11304A082E080B9089584EA86BF06B607FEFDCFD0
S11304B0089584E986BF089583B984E886BF06B6A3
S11304C007FEFDCF0895CF93DF93C82FD62FEBDF20
S11304D08D2FF2DF8C2FF0DFECDFDF91CF910895C9
S11304E084EC86BF06B607FEFDCF83B1089584E889
S11304F086BF06B607FEFDCF83B10895F894FFCFFB
S11305000F456E642061743A0053746F702020208C
S10905102000454E4400EA
S9030000FC
